{
  "contractName": "Aspirante",
  "abi": [
    {
      "inputs": [],
      "payable": false,
      "stateMutability": "nonpayable",
      "type": "constructor"
    },
    {
      "anonymous": false,
      "inputs": [
        {
          "indexed": false,
          "internalType": "address",
          "name": "",
          "type": "address"
        },
        {
          "indexed": false,
          "internalType": "string",
          "name": "",
          "type": "string"
        }
      ],
      "name": "onUserJoined",
      "type": "event"
    },
    {
      "constant": true,
      "inputs": [],
      "name": "owner",
      "outputs": [
        {
          "internalType": "address",
          "name": "",
          "type": "address"
        }
      ],
      "payable": false,
      "stateMutability": "view",
      "type": "function"
    },
    {
      "constant": false,
      "inputs": [
        {
          "internalType": "string",
          "name": "name",
          "type": "string"
        },
        {
          "internalType": "string",
          "name": "email",
          "type": "string"
        },
        {
          "internalType": "string",
          "name": "password",
          "type": "string"
        }
      ],
      "name": "join",
      "outputs": [],
      "payable": false,
      "stateMutability": "nonpayable",
      "type": "function"
    },
    {
      "constant": true,
      "inputs": [
        {
          "internalType": "address",
          "name": "addr",
          "type": "address"
        }
      ],
      "name": "getUser",
      "outputs": [
        {
          "internalType": "string",
          "name": "",
          "type": "string"
        },
        {
          "internalType": "string",
          "name": "",
          "type": "string"
        },
        {
          "internalType": "string",
          "name": "",
          "type": "string"
        }
      ],
      "payable": false,
      "stateMutability": "view",
      "type": "function"
    },
    {
      "constant": true,
      "inputs": [
        {
          "internalType": "address",
          "name": "addr",
          "type": "address"
        }
      ],
      "name": "userJoined",
      "outputs": [
        {
          "internalType": "bool",
          "name": "",
          "type": "bool"
        }
      ],
      "payable": false,
      "stateMutability": "view",
      "type": "function"
    },
    {
      "constant": true,
      "inputs": [],
      "name": "totalUsers",
      "outputs": [
        {
          "internalType": "uint256",
          "name": "",
          "type": "uint256"
        }
      ],
      "payable": false,
      "stateMutability": "view",
      "type": "function"
    },
    {
      "constant": false,
      "inputs": [
        {
          "internalType": "address",
          "name": "addr",
          "type": "address"
        }
      ],
      "name": "deleteUser",
      "outputs": [],
      "payable": false,
      "stateMutability": "nonpayable",
      "type": "function"
    }
  ],
  "bytecode": "0x608060405234801561001057600080fd5b50336000806101000a81548173ffffffffffffffffffffffffffffffffffffffff021916908373ffffffffffffffffffffffffffffffffffffffff160217905550610f8e806100606000396000f3fe608060405234801561001057600080fd5b50600436106100625760003560e01c80635c60f226146100675780636f77926b146100ab5780638da5cb5b14610240578063b88fe9d31461028a578063bff1f9e1146102e6578063f67d064e14610304575b600080fd5b6100a96004803603602081101561007d57600080fd5b81019080803573ffffffffffffffffffffffffffffffffffffffff1690602001909291905050506104ed565b005b6100ed600480360360208110156100c157600080fd5b81019080803573ffffffffffffffffffffffffffffffffffffffff169060200190929190505050610734565b60405180806020018060200180602001848103845287818151815260200191508051906020019080838360005b8381101561013557808201518184015260208101905061011a565b50505050905090810190601f1680156101625780820380516001836020036101000a031916815260200191505b50848103835286818151815260200191508051906020019080838360005b8381101561019b578082015181840152602081019050610180565b50505050905090810190601f1680156101c85780820380516001836020036101000a031916815260200191505b50848103825285818151815260200191508051906020019080838360005b838110156102015780820151818401526020810190506101e6565b50505050905090810190601f16801561022e5780820380516001836020036101000a031916815260200191505b50965050505050505060405180910390f35b610248610a14565b604051808273ffffffffffffffffffffffffffffffffffffffff1673ffffffffffffffffffffffffffffffffffffffff16815260200191505060405180910390f35b6102cc600480360360208110156102a057600080fd5b81019080803573ffffffffffffffffffffffffffffffffffffffff169060200190929190505050610a39565b604051808215151515815260200191505060405180910390f35b6102ee610a8f565b6040518082815260200191505060405180910390f35b6104eb6004803603606081101561031a57600080fd5b810190808035906020019064010000000081111561033757600080fd5b82018360208201111561034957600080fd5b8035906020019184600183028401116401000000008311171561036b57600080fd5b91908080601f016020809104026020016040519081016040528093929190818152602001838380828437600081840152601f19601f820116905080830192505050505050509192919290803590602001906401000000008111156103ce57600080fd5b8201836020820111156103e057600080fd5b8035906020019184600183028401116401000000008311171561040257600080fd5b91908080601f016020809104026020016040519081016040528093929190818152602001838380828437600081840152601f19601f8201169050808301925050505050505091929192908035906020019064010000000081111561046557600080fd5b82018360208201111561047757600080fd5b8035906020019184600183028401116401000000008311171561049957600080fd5b91908080601f016020809104026020016040519081016040528093929190818152602001838380828437600081840152601f19601f820116905080830192505050505050509192919290505050610a9c565b005b600160008273ffffffffffffffffffffffffffffffffffffffff1673ffffffffffffffffffffffffffffffffffffffff1681526020019081526020016000206000808201600061053d9190610e1f565b60018201600061054d9190610e1f565b60028201600061055d9190610e1f565b50506000600260008373ffffffffffffffffffffffffffffffffffffffff1673ffffffffffffffffffffffffffffffffffffffff16815260200190815260200160002060006101000a81548160ff02191690831515021790555060008090505b600380549050811015610730578173ffffffffffffffffffffffffffffffffffffffff16600382815481106105ee57fe5b9060005260206000200160009054906101000a900473ffffffffffffffffffffffffffffffffffffffff1673ffffffffffffffffffffffffffffffffffffffff1614156107235760036001600380549050038154811061064a57fe5b9060005260206000200160009054906101000a900473ffffffffffffffffffffffffffffffffffffffff166003828154811061068257fe5b9060005260206000200160006101000a81548173ffffffffffffffffffffffffffffffffffffffff021916908373ffffffffffffffffffffffffffffffffffffffff1602179055506003600160038054905003815481106106df57fe5b9060005260206000200160006101000a81549073ffffffffffffffffffffffffffffffffffffffff021916905560038054809190600190036107219190610e67565b505b80806001019150506105bd565b5050565b606080606061074233610a39565b6107b4576040517f08c379a000000000000000000000000000000000000000000000000000000000815260040180806020018281038252600b8152602001807f55736572204a6f696e656400000000000000000000000000000000000000000081525060200191505060405180910390fd5b6107bc610e93565b600160008673ffffffffffffffffffffffffffffffffffffffff1673ffffffffffffffffffffffffffffffffffffffff168152602001908152602001600020604051806060016040529081600082018054600181600116156101000203166002900480601f01602080910402602001604051908101604052809291908181526020018280546001816001161561010002031660029004801561089f5780601f106108745761010080835404028352916020019161089f565b820191906000526020600020905b81548152906001019060200180831161088257829003601f168201915b50505050508152602001600182018054600181600116156101000203166002900480601f0160208091040260200160405190810160405280929190818152602001828054600181600116156101000203166002900480156109415780601f1061091657610100808354040283529160200191610941565b820191906000526020600020905b81548152906001019060200180831161092457829003601f168201915b50505050508152602001600282018054600181600116156101000203166002900480601f0160208091040260200160405190810160405280929190818152602001828054600181600116156101000203166002900480156109e35780601f106109b8576101008083540402835291602001916109e3565b820191906000526020600020905b8154815290600101906020018083116109c657829003601f168201915b5050505050815250509050806000015181602001518260400151829250819150809050935093509350509193909250565b6000809054906101000a900473ffffffffffffffffffffffffffffffffffffffff1681565b6000600260008373ffffffffffffffffffffffffffffffffffffffff1673ffffffffffffffffffffffffffffffffffffffff16815260200190815260200160002060009054906101000a900460ff169050919050565b6000600380549050905090565b610aa533610a39565b15610b18576040517f08c379a000000000000000000000000000000000000000000000000000000000815260040180806020018281038252600b8152602001807f55736572204a6f696e656400000000000000000000000000000000000000000081525060200191505060405180910390fd5b6000600160003373ffffffffffffffffffffffffffffffffffffffff1673ffffffffffffffffffffffffffffffffffffffff168152602001908152602001600020905083816000019080519060200190610b73929190610eb4565b5081816002019080519060200190610b8c929190610eb4565b5082816001019080519060200190610ba5929190610eb4565b506001600260003373ffffffffffffffffffffffffffffffffffffffff1673ffffffffffffffffffffffffffffffffffffffff16815260200190815260200160002060006101000a81548160ff02191690831515021790555060033390806001815401808255809150509060018203906000526020600020016000909192909190916101000a81548173ffffffffffffffffffffffffffffffffffffffff021916908373ffffffffffffffffffffffffffffffffffffffff160217905550507fcb377c658a30311994ed849c5202a7876366b3353f8a9e009226ccd6411935b33385856040516020018083805190602001908083835b60208310610cbe5780518252602082019150602081019050602083039250610c9b565b6001836020036101000a038019825116818451168082178552505050505050905001807f200000000000000000000000000000000000000000000000000000000000000081525060010182805190602001908083835b60208310610d375780518252602082019150602081019050602083039250610d14565b6001836020036101000a03801982511681845116808217855250505050505090500192505050604051602081830303815290604052604051808373ffffffffffffffffffffffffffffffffffffffff1673ffffffffffffffffffffffffffffffffffffffff16815260200180602001828103825283818151815260200191508051906020019080838360005b83811015610dde578082015181840152602081019050610dc3565b50505050905090810190601f168015610e0b5780820380516001836020036101000a031916815260200191505b50935050505060405180910390a150505050565b50805460018160011615610100020316600290046000825580601f10610e455750610e64565b601f016020900490600052602060002090810190610e639190610f34565b5b50565b815481835581811115610e8e57818360005260206000209182019101610e8d9190610f34565b5b505050565b60405180606001604052806060815260200160608152602001606081525090565b828054600181600116156101000203166002900490600052602060002090601f016020900481019282601f10610ef557805160ff1916838001178555610f23565b82800160010185558215610f23579182015b82811115610f22578251825591602001919060010190610f07565b5b509050610f309190610f34565b5090565b610f5691905b80821115610f52576000816000905550600101610f3a565b5090565b9056fea265627a7a72315820e36c7fa20a739c6852d98340752e3f72ef07bad580ccc0ee7fbeeab3deb05a3d64736f6c63430005100032",
  "source": "pragma solidity >=0.4.21 <0.6.0;\n\ncontract Aspirante {\n\n    address public owner; //Almacena la dirección actual.\n\n   /*  struct FormacionUniversitaria{\n        string place;\n        string date;\n    }\n\n    struct ExperienciaDocente{\n        string description;\n        string place;\n        string date;\n    }\n\n    struct ExperienciaNoDocente{\n        string description;\n        string place;\n        string date;\n    }\n\n    struct Cursos{\n        string place;\n        string finished;\n    }\n\n    struct Idiomas{\n        string language;\n        string level;\n    }\n*/\n    struct Aspirantes {\n        //Datos para registrarse\n        string name; //Nombre\n        string email; //Correo\n        string password; //Password\n        //string surName; // Apellido\n        //string direction; // Direccion\n       // string phone; // Telefono\n        //uint loyaltyPoints; // Puntos del Usuario\n        //FormacionUniversitaria[] studies;\n        //ExperienciaDocente[] docente;\n        // ExperienciaNoDocente[] noDocente;\n        //Cursos[] cursos;\n        // Idiomas[] idiomas;\n\n    }\n\n    //FormacionUniversitaria[] public formacion;\n\n    constructor() public{\n        owner = msg.sender;\n    }\n\n /* Getión de Usuario */\n    mapping(address => Aspirantes) private users; //Para cada dirección de Aspirante, se crea un usuario.\n    mapping(address => bool) private joinedUsers; //Usuarios registrados.\n    address[] total;\n\n    //Evento que alerta la creación de un nuevo usuario.\n    event onUserJoined(address,string);\n\n    //Ejecuta para ingresar un nuevo aspirante.\n    function join(string memory name, string memory email, string memory password) public {\n        require(!userJoined(msg.sender), \"User Joined\");\n        Aspirantes storage user = users[msg.sender];\n\n        //Se asignan los valores ingresados a las variables.\n        user.name = name;\n        user.password = password;\n        user.email = email;\n        joinedUsers[msg.sender] = true; //Dirección del usuario ya se ha registrado.\n        total.push(msg.sender);\n\n        //Activa el evento que alerta creación de usuario.\n       emit onUserJoined(msg.sender, string(abi.encodePacked(name, \" \", email)));\n    }\n\n    //Leer del mapping un usuario y devolver sus datos.\n    function getUser(address addr) public view returns (string memory, string memory, string memory) {\n        require(userJoined(msg.sender), \"User Joined\");\n        Aspirantes memory user = users[addr];\n        return (user.name, user.email, user.password);\n    }\n\n    //Verifica si el usuario existe, antes de crearlo o mostrarlo.\n    function userJoined(address addr) public view returns (bool) {\n        return joinedUsers[addr];\n    }\n\n    //Mostrar el número total de usuarios registrados.\n    function totalUsers() public view returns (uint) {\n        return total.length;\n    }\n\n    function deleteUser(address addr) public {\n        delete users[addr];\n        joinedUsers[addr] = false;\n\n        for(uint i = 0; i < total.length; i++){\n\n            if (total[i] == addr){\n                    total[i] = total[total.length-1];\n                    delete total[total.length-1];\n                    total.length--;\n            }\n        }\n\n    }\n\n}",
  "sourcePath": "/home/nahomi/Expediente/expediente/contracts/Aspirante.sol",
  "compiler": {
    "name": "solc",
    "version": "0.5.16+commit.9c3226ce.Emscripten.clang"
  },
  "schemaVersion": "3.1.0",
  "updatedAt": "2021-03-06T15:00:12.451Z",
  "networkType": "ethereum",
  "devdoc": {
    "methods": {}
  },
  "userdoc": {
    "methods": {}
  }
}