{
  "contractName": "Curriculum",
  "abi": [
    {
      "inputs": [],
      "payable": false,
      "stateMutability": "nonpayable",
      "type": "constructor"
    },
    {
      "anonymous": false,
      "inputs": [
        {
          "indexed": true,
          "internalType": "address",
          "name": "aspirante",
          "type": "address"
        }
      ],
      "name": "FilePurchased",
      "type": "event"
    },
    {
      "constant": true,
      "inputs": [
        {
          "internalType": "address",
          "name": "",
          "type": "address"
        },
        {
          "internalType": "uint256",
          "name": "",
          "type": "uint256"
        }
      ],
      "name": "aspiranteFiles",
      "outputs": [
        {
          "internalType": "string",
          "name": "name",
          "type": "string"
        },
        {
          "internalType": "uint256",
          "name": "price",
          "type": "uint256"
        },
        {
          "internalType": "string",
          "name": "hashFile",
          "type": "string"
        }
      ],
      "payable": false,
      "stateMutability": "view",
      "type": "function"
    },
    {
      "constant": true,
      "inputs": [
        {
          "internalType": "address",
          "name": "",
          "type": "address"
        }
      ],
      "name": "aspiranteTotalFiles",
      "outputs": [
        {
          "internalType": "uint256",
          "name": "",
          "type": "uint256"
        }
      ],
      "payable": false,
      "stateMutability": "view",
      "type": "function"
    },
    {
      "constant": true,
      "inputs": [
        {
          "internalType": "address",
          "name": "",
          "type": "address"
        }
      ],
      "name": "aspirantes",
      "outputs": [
        {
          "internalType": "uint256",
          "name": "loyaltyPoints",
          "type": "uint256"
        },
        {
          "internalType": "uint256",
          "name": "totalFiles",
          "type": "uint256"
        }
      ],
      "payable": false,
      "stateMutability": "view",
      "type": "function"
    },
    {
      "constant": true,
      "inputs": [
        {
          "internalType": "uint256",
          "name": "",
          "type": "uint256"
        }
      ],
      "name": "files",
      "outputs": [
        {
          "internalType": "string",
          "name": "name",
          "type": "string"
        },
        {
          "internalType": "uint256",
          "name": "price",
          "type": "uint256"
        },
        {
          "internalType": "string",
          "name": "hashFile",
          "type": "string"
        }
      ],
      "payable": false,
      "stateMutability": "view",
      "type": "function"
    },
    {
      "constant": true,
      "inputs": [],
      "name": "owner",
      "outputs": [
        {
          "internalType": "address",
          "name": "",
          "type": "address"
        }
      ],
      "payable": false,
      "stateMutability": "view",
      "type": "function"
    },
    {
      "constant": true,
      "inputs": [
        {
          "internalType": "uint256",
          "name": "i",
          "type": "uint256"
        }
      ],
      "name": "getFilesName",
      "outputs": [
        {
          "internalType": "string",
          "name": "",
          "type": "string"
        }
      ],
      "payable": false,
      "stateMutability": "view",
      "type": "function"
    },
    {
      "constant": true,
      "inputs": [
        {
          "internalType": "uint256",
          "name": "i",
          "type": "uint256"
        }
      ],
      "name": "getFilesPrice",
      "outputs": [
        {
          "internalType": "uint256",
          "name": "",
          "type": "uint256"
        }
      ],
      "payable": false,
      "stateMutability": "view",
      "type": "function"
    },
    {
      "constant": true,
      "inputs": [],
      "name": "getAspiranteTotalFiles",
      "outputs": [
        {
          "internalType": "uint256",
          "name": "",
          "type": "uint256"
        }
      ],
      "payable": false,
      "stateMutability": "view",
      "type": "function"
    },
    {
      "constant": false,
      "inputs": [
        {
          "internalType": "uint256",
          "name": "filesIndex",
          "type": "uint256"
        },
        {
          "internalType": "string",
          "name": "ipfsHash",
          "type": "string"
        }
      ],
      "name": "UpFiles",
      "outputs": [],
      "payable": false,
      "stateMutability": "nonpayable",
      "type": "function"
    },
    {
      "constant": true,
      "inputs": [],
      "name": "totalFiles",
      "outputs": [
        {
          "internalType": "uint256",
          "name": "",
          "type": "uint256"
        }
      ],
      "payable": false,
      "stateMutability": "view",
      "type": "function"
    },
    {
      "constant": false,
      "inputs": [
        {
          "internalType": "address",
          "name": "account",
          "type": "address"
        },
        {
          "internalType": "uint256",
          "name": "index",
          "type": "uint256"
        }
      ],
      "name": "deleteFile",
      "outputs": [
        {
          "internalType": "string",
          "name": "",
          "type": "string"
        }
      ],
      "payable": false,
      "stateMutability": "nonpayable",
      "type": "function"
    }
  ],
  "bytecode": "0x60806040526706f05b59d3b200006001553480156200001d57600080fd5b50336000806101000a81548173ffffffffffffffffffffffffffffffffffffffff021916908373ffffffffffffffffffffffffffffffffffffffff160217905550600260405180606001604052806040518060400160405280600b81526020017f466f746f204361726e65740000000000000000000000000000000000000000008152508152602001670de0b6b3a764000081526020016040518060400160405280600181526020017f7800000000000000000000000000000000000000000000000000000000000000815250815250908060018154018082558091505090600182039060005260206000209060030201600090919290919091506000820151816000019080519060200190620001369291906200057d565b506020820151816001015560408201518160020190805190602001906200015f9291906200057d565b50505050600260405180606001604052806040518060400160405280600781526020017f43c3a964756c610000000000000000000000000000000000000000000000000081525081526020016729a2241af62c000081526020016040518060400160405280600181526020017f78000000000000000000000000000000000000000000000000000000000000008152508152509080600181540180825580915050906001820390600052602060002090600302016000909192909190915060008201518160000190805190602001906200023b9291906200057d565b50602082015181600101556040820151816002019080519060200190620002649291906200057d565b50505050600260405180606001604052806040518060400160405280600881526020017f54c3ad74756c6f730000000000000000000000000000000000000000000000008152508152602001671bc16d674ec8000081526020016040518060400160405280600181526020017f7800000000000000000000000000000000000000000000000000000000000000815250815250908060018154018082558091505090600182039060005260206000209060030201600090919290919091506000820151816000019080519060200190620003409291906200057d565b50602082015181600101556040820151816002019080519060200190620003699291906200057d565b50505050600260405180606001604052806040518060400160405280600c81526020017f436572746966696361646f7300000000000000000000000000000000000000008152508152602001670de0b6b3a764000081526020016040518060400160405280600181526020017f7800000000000000000000000000000000000000000000000000000000000000815250815250908060018154018082558091505090600182039060005260206000209060030201600090919290919091506000820151816000019080519060200190620004459291906200057d565b506020820151816001015560408201518160020190805190602001906200046e9291906200057d565b50505050600260405180606001604052806040518060400160405280600e81526020017f43616c696669636163696f6e65730000000000000000000000000000000000008152508152602001670de0b6b3a764000081526020016040518060400160405280600181526020017f78000000000000000000000000000000000000000000000000000000000000008152508152509080600181540180825580915050906001820390600052602060002090600302016000909192909190915060008201518160000190805190602001906200054a9291906200057d565b50602082015181600101556040820151816002019080519060200190620005739291906200057d565b505050506200062c565b828054600181600116156101000203166002900490600052602060002090601f016020900481019282601f10620005c057805160ff1916838001178555620005f1565b82800160010185558215620005f1579182015b82811115620005f0578251825591602001919060010190620005d3565b5b50905062000600919062000604565b5090565b6200062991905b80821115620006255760008160009055506001016200060b565b5090565b90565b611329806200063c6000396000f3fe608060405234801561001057600080fd5b50600436106100a95760003560e01c806392cf05571161007157806392cf0557146102fe578063c52f80dd1461031c578063d8cd7d26146103e3578063da6cac751461051d578063f41383fd1461053b578063f4c714b41461059a576100a9565b8063061075f5146100ae5780631e08220014610155578063688fdb0b146101975780636de891fa1461025c5780638da5cb5b146102b4575b600080fd5b6100da600480360360208110156100c457600080fd5b81019080803590602001909291905050506106b4565b6040518080602001828103825283818151815260200191508051906020019080838360005b8381101561011a5780820151818401526020810190506100ff565b50505050905090810190601f1680156101475780820380516001836020036101000a031916815260200191505b509250505060405180910390f35b6101816004803603602081101561016b57600080fd5b8101908080359060200190929190505050610779565b6040518082815260200191505060405180910390f35b61025a600480360360408110156101ad57600080fd5b8101908080359060200190929190803590602001906401000000008111156101d457600080fd5b8201836020820111156101e657600080fd5b8035906020019184600183028401116401000000008311171561020857600080fd5b91908080601f016020809104026020016040519081016040528093929190818152602001838380828437600081840152601f19601f8201169050808301925050505050505091929192905050506107a6565b005b61029e6004803603602081101561027257600080fd5b81019080803573ffffffffffffffffffffffffffffffffffffffff1690602001909291905050506109a7565b6040518082815260200191505060405180910390f35b6102bc6109bf565b604051808273ffffffffffffffffffffffffffffffffffffffff1673ffffffffffffffffffffffffffffffffffffffff16815260200191505060405180910390f35b6103066109e4565b6040518082815260200191505060405180910390f35b6103686004803603604081101561033257600080fd5b81019080803573ffffffffffffffffffffffffffffffffffffffff169060200190929190803590602001909291905050506109f1565b6040518080602001828103825283818151815260200191508051906020019080838360005b838110156103a857808201518184015260208101905061038d565b50505050905090810190601f1680156103d55780820380516001836020036101000a031916815260200191505b509250505060405180910390f35b61042f600480360360408110156103f957600080fd5b81019080803573ffffffffffffffffffffffffffffffffffffffff16906020019092919080359060200190929190505050610db9565b604051808060200184815260200180602001838103835286818151815260200191508051906020019080838360005b8381101561047957808201518184015260208101905061045e565b50505050905090810190601f1680156104a65780820380516001836020036101000a031916815260200191505b50838103825284818151815260200191508051906020019080838360005b838110156104df5780820151818401526020810190506104c4565b50505050905090810190601f16801561050c5780820380516001836020036101000a031916815260200191505b509550505050505060405180910390f35b610525610f2d565b6040518082815260200191505060405180910390f35b61057d6004803603602081101561055157600080fd5b81019080803573ffffffffffffffffffffffffffffffffffffffff169060200190929190505050610f7c565b604051808381526020018281526020019250505060405180910390f35b6105c6600480360360208110156105b057600080fd5b8101908080359060200190929190505050610fa0565b604051808060200184815260200180602001838103835286818151815260200191508051906020019080838360005b838110156106105780820151818401526020810190506105f5565b50505050905090810190601f16801561063d5780820380516001836020036101000a031916815260200191505b50838103825284818151815260200191508051906020019080838360005b8381101561067657808201518184015260208101905061065b565b50505050905090810190601f1680156106a35780820380516001836020036101000a031916815260200191505b509550505050505060405180910390f35b606080600283815481106106c457fe5b90600052602060002090600302016000018054600181600116156101000203166002900480601f0160208091040260200160405190810160405280929190818152602001828054600181600116156101000203166002900480156107695780601f1061073e57610100808354040283529160200191610769565b820191906000526020600020905b81548152906001019060200180831161074c57829003601f168201915b5050505050905080915050919050565b6000806002838154811061078957fe5b906000526020600020906003020160010154905080915050919050565b6000600283815481106107b557fe5b90600052602060002090600302019050818160020190805190602001906107dd929190611107565b506000600360003373ffffffffffffffffffffffffffffffffffffffff1673ffffffffffffffffffffffffffffffffffffffff16815260200190815260200160002090506001816000016000828254019250508190555060018160010160008282540192505081905550600460003373ffffffffffffffffffffffffffffffffffffffff1673ffffffffffffffffffffffffffffffffffffffff1681526020019081526020016000208290806001815401808255809150509060018203906000526020600020906003020160009091929091909150600082018160000190805460018160011615610100020316600290046108d9929190611187565b50600182015481600101556002820181600201908054600181600116156101000203166002900461090b929190611187565b50505050600560003373ffffffffffffffffffffffffffffffffffffffff1673ffffffffffffffffffffffffffffffffffffffff168152602001908152602001600020600081548092919060010191905055503373ffffffffffffffffffffffffffffffffffffffff167fe1cfa584eae45447019bde4799382e43b16ce8e778e94349b900383353da447060405160405180910390a250505050565b60056020528060005260406000206000915090505481565b6000809054906101000a900473ffffffffffffffffffffffffffffffffffffffff1681565b6000600280549050905090565b60606000600560008573ffffffffffffffffffffffffffffffffffffffff1673ffffffffffffffffffffffffffffffffffffffff168152602001908152602001600020549050808311610d79576000600460008673ffffffffffffffffffffffffffffffffffffffff1673ffffffffffffffffffffffffffffffffffffffff1681526020019081526020016000208481548110610a8a57fe5b90600052602060002090600302019050600460008673ffffffffffffffffffffffffffffffffffffffff1673ffffffffffffffffffffffffffffffffffffffff1681526020019081526020016000206001830381548110610ae757fe5b9060005260206000209060030201600460008773ffffffffffffffffffffffffffffffffffffffff1673ffffffffffffffffffffffffffffffffffffffff1681526020019081526020016000208581548110610b3f57fe5b906000526020600020906003020160008201816000019080546001816001161561010002031660029004610b74929190611187565b506001820154816001015560028201816002019080546001816001161561010002031660029004610ba6929190611187565b50905050600460008673ffffffffffffffffffffffffffffffffffffffff1673ffffffffffffffffffffffffffffffffffffffff1681526020019081526020016000206001830381548110610bf757fe5b906000526020600020906003020160008082016000610c16919061120e565b6001820160009055600282016000610c2e919061120e565b5050600560008673ffffffffffffffffffffffffffffffffffffffff1673ffffffffffffffffffffffffffffffffffffffff1681526020019081526020016000206000815480929190600190039190505550600460008673ffffffffffffffffffffffffffffffffffffffff1673ffffffffffffffffffffffffffffffffffffffff168152602001908152602001600020805480919060019003610cd29190611256565b50806000018054600181600116156101000203166002900480601f016020809104026020016040519081016040528092919081815260200182805460018160011615610100020316600290048015610d6b5780601f10610d4057610100808354040283529160200191610d6b565b820191906000526020600020905b815481529060010190602001808311610d4e57829003601f168201915b505050505092505050610db3565b6040518060400160405280600581526020017f4572726f720000000000000000000000000000000000000000000000000000008152509150505b92915050565b60046020528160005260406000208181548110610dd257fe5b906000526020600020906003020160009150915050806000018054600181600116156101000203166002900480601f016020809104026020016040519081016040528092919081815260200182805460018160011615610100020316600290048015610e7f5780601f10610e5457610100808354040283529160200191610e7f565b820191906000526020600020905b815481529060010190602001808311610e6257829003601f168201915b505050505090806001015490806002018054600181600116156101000203166002900480601f016020809104026020016040519081016040528092919081815260200182805460018160011615610100020316600290048015610f235780601f10610ef857610100808354040283529160200191610f23565b820191906000526020600020905b815481529060010190602001808311610f0657829003601f168201915b5050505050905083565b600080600360003373ffffffffffffffffffffffffffffffffffffffff1673ffffffffffffffffffffffffffffffffffffffff1681526020019081526020016000209050806001015491505090565b60036020528060005260406000206000915090508060000154908060010154905082565b60028181548110610fad57fe5b9060005260206000209060030201600091509050806000018054600181600116156101000203166002900480601f0160208091040260200160405190810160405280929190818152602001828054600181600116156101000203166002900480156110595780601f1061102e57610100808354040283529160200191611059565b820191906000526020600020905b81548152906001019060200180831161103c57829003601f168201915b505050505090806001015490806002018054600181600116156101000203166002900480601f0160208091040260200160405190810160405280929190818152602001828054600181600116156101000203166002900480156110fd5780601f106110d2576101008083540402835291602001916110fd565b820191906000526020600020905b8154815290600101906020018083116110e057829003601f168201915b5050505050905083565b828054600181600116156101000203166002900490600052602060002090601f016020900481019282601f1061114857805160ff1916838001178555611176565b82800160010185558215611176579182015b8281111561117557825182559160200191906001019061115a565b5b5090506111839190611288565b5090565b828054600181600116156101000203166002900490600052602060002090601f016020900481019282601f106111c057805485556111fd565b828001600101855582156111fd57600052602060002091601f016020900482015b828111156111fc5782548255916001019190600101906111e1565b5b50905061120a9190611288565b5090565b50805460018160011615610100020316600290046000825580601f106112345750611253565b601f0160209004906000526020600020908101906112529190611288565b5b50565b8154818355818111156112835760030281600302836000526020600020918201910161128291906112ad565b5b505050565b6112aa91905b808211156112a657600081600090555060010161128e565b5090565b90565b6112f191905b808211156112ed57600080820160006112cc919061120e565b60018201600090556002820160006112e4919061120e565b506003016112b3565b5090565b9056fea265627a7a72315820b543293dbf1bb42a148ad86f6c87ca9ca3fcd5abc4c99aa11f5151d4bcf8354164736f6c63430005100032",
  "source": "pragma solidity >=0.4.21 <0.6.0;\n\n\ncontract Curriculum {\n   /* string ipfsHash;\n    \n    //Cambia el valor de la variable ipfshash\n    function set(string memory x) public {\n        ipfsHash = x;\n    }\n\n    //Retorna el valor de la variable ipfshash\n    function get() public view returns (string memory) {\n        return ipfsHash;\n    }\n*/\n \n //Recibe un índice para leer de un array el tipo de archivo que se está cargando\n //Ve que accedemos al nombre que está guardado en ese índice del array y lo retorna\n function getFilesName(uint i) external view returns (string memory)  {\n       string memory nameArray = files[i].name;\n\n       return(nameArray);\n       \n    }\n\n    //Lo mismo pero retorna el costo de subir el archivo\n     function getFilesPrice(uint i) external view returns (uint256)  {\n       uint256 priceArray = files[i].price;\n\n       return(priceArray);\n       \n    }\n\n\n     //Retorna la cantidad de archivos que ha cargado el aspirante\n      function getAspiranteTotalFiles() public view returns (uint) { \n        Aspirante storage aspirante = aspirantes[msg.sender];\n\n        return aspirante.totalFiles;\n    }\n\n    address public owner; //El dueño del smart contract\n\n    //Nuevo tipo de dato que representa al Aspirante que quiere cargar su expediente\n     struct Aspirante {\n        uint loyaltyPoints;\n        uint totalFiles;\n    }\n\n    //Nuevo tipo de dato que representa a cada Archivo que \n    //va a cargar el Aspirante en su expediente\n    struct Files {\n        string name;\n        uint256 price;\n        string hashFile;\n\n    }\n\n    uint etherPerPoint = 0.5 ether; //El valor del LoyaltyPoint\n    \n    //Arreglo para guardar los Archivos que el Aspirante\n    //va a poder cargar en su expediente\n    Files[] public files; \n\n\n    //Complejo que asigna un address a un Aspirante\n    //Tenemos en este tipo de datos a todos los aspirantes\n     mapping(address => Aspirante) public aspirantes;\n\n     //Complejo que asigna un address del aspirante a un Archivo que ha cargado\n     //Guarda la lista de Archivos que ha cargado cada Aspirante\n     mapping(address => Files[]) public aspiranteFiles;\n\n     //Complejo que asigna un address de aspirante a la cantidad de archivos que ha cargado\n     //Relaciona la dirección de un Aspirante con el nro de archivos que tiene en su expediente\n     mapping (address => uint) public aspiranteTotalFiles;\n\n    event FilePurchased(address indexed aspirante);\n\n    constructor() public {\n        owner = msg.sender; //La persona que despliega el contrato\n\n        //Inicializamos los archivos que puede almacenar en el expediente docente\n        files.push(Files('Foto Carnet', 1 ether, 'x'));\n        files.push(Files('Cédula', 3 ether, 'x'));\n        files.push(Files('Títulos', 2 ether, 'x'));\n        files.push(Files('Certificados', 1 ether, 'x'));\n        files.push(Files('Calificaciones', 1 ether, 'x'));\n    }\n\n    //Cargar el archivo en el expediente\n    function UpFiles(uint filesIndex, string memory ipfsHash) public{\n        Files storage file = files[filesIndex];//Guardamos el archivo que está cargando en su expediente\n\n        file.hashFile = ipfsHash; //Le asignamos el hash de la IPFS\n\n        Aspirante storage aspirante = aspirantes[msg.sender];//Obtenemos el aspirante que estamos modificando\n\n        aspirante.loyaltyPoints += 1; //Aumentamos sus puntos de Lealtad\n        aspirante.totalFiles += 1; //Aumentamos la variable de control de cantidad de archivos en el expediente\n        aspiranteFiles[msg.sender].push(file); //Guardamos el Archivo actualizado en mapping asociado al address del Aspirante\n        aspiranteTotalFiles[msg.sender]++; //Almacenamos en el arreglo de Address con Nro de Archivos por Aspirante\n\n      emit FilePurchased(msg.sender);\n    }\n    \n    \n    //¿Cuátos archivos están desplegados para que pueda subir el aspirante?\n      function totalFiles() public view returns (uint) { \n        return files.length;\n    }\n    \n    \n    //Eliminar un archivo del aspirante\n    function deleteFile(address account, uint index) public returns(string memory) {\n\n            uint lengthArray = aspiranteTotalFiles[account];\n        \n        if (index <= lengthArray){\n\n                Files storage element = aspiranteFiles[account][index];\n                aspiranteFiles[account][index] = aspiranteFiles[account][lengthArray-1];\n                delete aspiranteFiles[account][lengthArray-1];\n                aspiranteTotalFiles[account]--;\n                aspiranteFiles[account].length--;\n                return element.name;\n        }\n        else return 'Error';\n\n       \n    }\n\n\n}",
  "sourcePath": "/home/nahomi/Expediente/expediente/contracts/Curriculum.sol",
  "compiler": {
    "name": "solc",
    "version": "0.5.16+commit.9c3226ce.Emscripten.clang"
  },
  "schemaVersion": "3.1.0",
  "updatedAt": "2021-03-06T15:00:13.051Z",
  "networkType": "ethereum",
  "devdoc": {
    "methods": {}
  },
  "userdoc": {
    "methods": {}
  }
}