{
  "contractName": "Curriculum",
  "abi": [
    {
      "inputs": [],
      "payable": false,
      "stateMutability": "nonpayable",
      "type": "constructor"
    },
    {
      "anonymous": false,
      "inputs": [
        {
          "indexed": true,
          "internalType": "address",
          "name": "aspirante",
          "type": "address"
        },
        {
          "indexed": false,
          "internalType": "uint256",
          "name": "price",
          "type": "uint256"
        }
      ],
      "name": "FilePurchased",
      "type": "event"
    },
    {
      "constant": true,
      "inputs": [
        {
          "internalType": "address",
          "name": "",
          "type": "address"
        },
        {
          "internalType": "uint256",
          "name": "",
          "type": "uint256"
        }
      ],
      "name": "aspiranteFiles",
      "outputs": [
        {
          "internalType": "string",
          "name": "name",
          "type": "string"
        },
        {
          "internalType": "uint256",
          "name": "price",
          "type": "uint256"
        },
        {
          "internalType": "string",
          "name": "hashFile",
          "type": "string"
        }
      ],
      "payable": false,
      "stateMutability": "view",
      "type": "function"
    },
    {
      "constant": true,
      "inputs": [
        {
          "internalType": "address",
          "name": "",
          "type": "address"
        }
      ],
      "name": "aspiranteTotalFiles",
      "outputs": [
        {
          "internalType": "uint256",
          "name": "",
          "type": "uint256"
        }
      ],
      "payable": false,
      "stateMutability": "view",
      "type": "function"
    },
    {
      "constant": true,
      "inputs": [
        {
          "internalType": "address",
          "name": "",
          "type": "address"
        }
      ],
      "name": "aspirantes",
      "outputs": [
        {
          "internalType": "uint256",
          "name": "loyaltyPoints",
          "type": "uint256"
        },
        {
          "internalType": "uint256",
          "name": "totalFiles",
          "type": "uint256"
        }
      ],
      "payable": false,
      "stateMutability": "view",
      "type": "function"
    },
    {
      "constant": true,
      "inputs": [
        {
          "internalType": "uint256",
          "name": "",
          "type": "uint256"
        }
      ],
      "name": "files",
      "outputs": [
        {
          "internalType": "string",
          "name": "name",
          "type": "string"
        },
        {
          "internalType": "uint256",
          "name": "price",
          "type": "uint256"
        },
        {
          "internalType": "string",
          "name": "hashFile",
          "type": "string"
        }
      ],
      "payable": false,
      "stateMutability": "view",
      "type": "function"
    },
    {
      "constant": true,
      "inputs": [],
      "name": "owner",
      "outputs": [
        {
          "internalType": "address",
          "name": "",
          "type": "address"
        }
      ],
      "payable": false,
      "stateMutability": "view",
      "type": "function"
    },
    {
      "constant": true,
      "inputs": [
        {
          "internalType": "uint256",
          "name": "i",
          "type": "uint256"
        }
      ],
      "name": "getFilesName",
      "outputs": [
        {
          "internalType": "string",
          "name": "",
          "type": "string"
        }
      ],
      "payable": false,
      "stateMutability": "view",
      "type": "function"
    },
    {
      "constant": true,
      "inputs": [
        {
          "internalType": "uint256",
          "name": "i",
          "type": "uint256"
        }
      ],
      "name": "getFilesPrice",
      "outputs": [
        {
          "internalType": "uint256",
          "name": "",
          "type": "uint256"
        }
      ],
      "payable": false,
      "stateMutability": "view",
      "type": "function"
    },
    {
      "constant": true,
      "inputs": [],
      "name": "getAspiranteTotalFiles",
      "outputs": [
        {
          "internalType": "uint256",
          "name": "",
          "type": "uint256"
        }
      ],
      "payable": false,
      "stateMutability": "view",
      "type": "function"
    },
    {
      "constant": false,
      "inputs": [
        {
          "internalType": "uint256",
          "name": "filesIndex",
          "type": "uint256"
        },
        {
          "internalType": "string",
          "name": "ipfsHash",
          "type": "string"
        }
      ],
      "name": "UpFiles",
      "outputs": [],
      "payable": false,
      "stateMutability": "nonpayable",
      "type": "function"
    },
    {
      "constant": true,
      "inputs": [],
      "name": "totalFiles",
      "outputs": [
        {
          "internalType": "uint256",
          "name": "",
          "type": "uint256"
        }
      ],
      "payable": false,
      "stateMutability": "view",
      "type": "function"
    },
    {
      "constant": false,
      "inputs": [],
      "name": "redeemLoyaltyPoints",
      "outputs": [],
      "payable": false,
      "stateMutability": "nonpayable",
      "type": "function"
    }
  ],
  "bytecode": "0x60806040526706f05b59d3b200006001553480156200001d57600080fd5b50336000806101000a81548173ffffffffffffffffffffffffffffffffffffffff021916908373ffffffffffffffffffffffffffffffffffffffff160217905550600260405180606001604052806040518060400160405280600b81526020017f466f746f204361726e65740000000000000000000000000000000000000000008152508152602001670de0b6b3a764000081526020016040518060400160405280600181526020017f7800000000000000000000000000000000000000000000000000000000000000815250815250908060018154018082558091505090600182039060005260206000209060030201600090919290919091506000820151816000019080519060200190620001369291906200057d565b506020820151816001015560408201518160020190805190602001906200015f9291906200057d565b50505050600260405180606001604052806040518060400160405280600681526020017f436564756c61000000000000000000000000000000000000000000000000000081525081526020016729a2241af62c000081526020016040518060400160405280600181526020017f78000000000000000000000000000000000000000000000000000000000000008152508152509080600181540180825580915050906001820390600052602060002090600302016000909192909190915060008201518160000190805190602001906200023b9291906200057d565b50602082015181600101556040820151816002019080519060200190620002649291906200057d565b50505050600260405180606001604052806040518060400160405280600781526020017f546974756c6f73000000000000000000000000000000000000000000000000008152508152602001671bc16d674ec8000081526020016040518060400160405280600181526020017f7800000000000000000000000000000000000000000000000000000000000000815250815250908060018154018082558091505090600182039060005260206000209060030201600090919290919091506000820151816000019080519060200190620003409291906200057d565b50602082015181600101556040820151816002019080519060200190620003699291906200057d565b50505050600260405180606001604052806040518060400160405280600c81526020017f436572746966696361646f7300000000000000000000000000000000000000008152508152602001670de0b6b3a764000081526020016040518060400160405280600181526020017f7800000000000000000000000000000000000000000000000000000000000000815250815250908060018154018082558091505090600182039060005260206000209060030201600090919290919091506000820151816000019080519060200190620004459291906200057d565b506020820151816001015560408201518160020190805190602001906200046e9291906200057d565b50505050600260405180606001604052806040518060400160405280600e81526020017f43616c696669636163696f6e65730000000000000000000000000000000000008152508152602001670de0b6b3a764000081526020016040518060400160405280600181526020017f78000000000000000000000000000000000000000000000000000000000000008152508152509080600181540180825580915050906001820390600052602060002090600302016000909192909190915060008201518160000190805190602001906200054a9291906200057d565b50602082015181600101556040820151816002019080519060200190620005739291906200057d565b505050506200062c565b828054600181600116156101000203166002900490600052602060002090601f016020900481019282601f10620005c057805160ff1916838001178555620005f1565b82800160010185558215620005f1579182015b82811115620005f0578251825591602001919060010190620005d3565b5b50905062000600919062000604565b5090565b6200062991905b80821115620006255760008160009055506001016200060b565b5090565b90565b610e97806200063c6000396000f3fe608060405234801561001057600080fd5b50600436106100a95760003560e01c806392cf05571161007157806392cf0557146102fe578063d8cd7d261461031c578063da6cac7514610456578063f41383fd14610474578063f4c714b4146104d3578063f997114f146105ed576100a9565b8063061075f5146100ae5780631e08220014610155578063688fdb0b146101975780636de891fa1461025c5780638da5cb5b146102b4575b600080fd5b6100da600480360360208110156100c457600080fd5b81019080803590602001909291905050506105f7565b6040518080602001828103825283818151815260200191508051906020019080838360005b8381101561011a5780820151818401526020810190506100ff565b50505050905090810190601f1680156101475780820380516001836020036101000a031916815260200191505b509250505060405180910390f35b6101816004803603602081101561016b57600080fd5b81019080803590602001909291905050506106bc565b6040518082815260200191505060405180910390f35b61025a600480360360408110156101ad57600080fd5b8101908080359060200190929190803590602001906401000000008111156101d457600080fd5b8201836020820111156101e657600080fd5b8035906020019184600183028401116401000000008311171561020857600080fd5b91908080601f016020809104026020016040519081016040528093929190818152602001838380828437600081840152601f19601f8201169050808301925050505050505091929192905050506106e9565b005b61029e6004803603602081101561027257600080fd5b81019080803573ffffffffffffffffffffffffffffffffffffffff1690602001909291905050506108f9565b6040518082815260200191505060405180910390f35b6102bc610911565b604051808273ffffffffffffffffffffffffffffffffffffffff1673ffffffffffffffffffffffffffffffffffffffff16815260200191505060405180910390f35b610306610936565b6040518082815260200191505060405180910390f35b6103686004803603604081101561033257600080fd5b81019080803573ffffffffffffffffffffffffffffffffffffffff16906020019092919080359060200190929190505050610943565b604051808060200184815260200180602001838103835286818151815260200191508051906020019080838360005b838110156103b2578082015181840152602081019050610397565b50505050905090810190601f1680156103df5780820380516001836020036101000a031916815260200191505b50838103825284818151815260200191508051906020019080838360005b838110156104185780820151818401526020810190506103fd565b50505050905090810190601f1680156104455780820380516001836020036101000a031916815260200191505b509550505050505060405180910390f35b61045e610ab7565b6040518082815260200191505060405180910390f35b6104b66004803603602081101561048a57600080fd5b81019080803573ffffffffffffffffffffffffffffffffffffffff169060200190929190505050610b06565b604051808381526020018281526020019250505060405180910390f35b6104ff600480360360208110156104e957600080fd5b8101908080359060200190929190505050610b2a565b604051808060200184815260200180602001838103835286818151815260200191508051906020019080838360005b8381101561054957808201518184015260208101905061052e565b50505050905090810190601f1680156105765780820380516001836020036101000a031916815260200191505b50838103825284818151815260200191508051906020019080838360005b838110156105af578082015181840152602081019050610594565b50505050905090810190601f1680156105dc5780820380516001836020036101000a031916815260200191505b509550505050505060405180910390f35b6105f5610c91565b005b6060806002838154811061060757fe5b90600052602060002090600302016000018054600181600116156101000203166002900480601f0160208091040260200160405190810160405280929190818152602001828054600181600116156101000203166002900480156106ac5780601f10610681576101008083540402835291602001916106ac565b820191906000526020600020905b81548152906001019060200180831161068f57829003601f168201915b5050505050905080915050919050565b600080600283815481106106cc57fe5b906000526020600020906003020160010154905080915050919050565b6000600283815481106106f857fe5b9060005260206000209060030201905081816002019080519060200190610720929190610d36565b506000600360003373ffffffffffffffffffffffffffffffffffffffff1673ffffffffffffffffffffffffffffffffffffffff16815260200190815260200160002090506001816000016000828254019250508190555060018160010160008282540192505081905550600460003373ffffffffffffffffffffffffffffffffffffffff1673ffffffffffffffffffffffffffffffffffffffff16815260200190815260200160002082908060018154018082558091505090600182039060005260206000209060030201600090919290919091506000820181600001908054600181600116156101000203166002900461081c929190610db6565b50600182015481600101556002820181600201908054600181600116156101000203166002900461084e929190610db6565b50505050600560003373ffffffffffffffffffffffffffffffffffffffff1673ffffffffffffffffffffffffffffffffffffffff168152602001908152602001600020600081548092919060010191905055503373ffffffffffffffffffffffffffffffffffffffff167f4e4c9eebc6e0a75a0739c4071d086b27305eeb87b5fb048bd605748e62f9ad4683600101546040518082815260200191505060405180910390a250505050565b60056020528060005260406000206000915090505481565b6000809054906101000a900473ffffffffffffffffffffffffffffffffffffffff1681565b6000600280549050905090565b6004602052816000526040600020818154811061095c57fe5b906000526020600020906003020160009150915050806000018054600181600116156101000203166002900480601f016020809104026020016040519081016040528092919081815260200182805460018160011615610100020316600290048015610a095780601f106109de57610100808354040283529160200191610a09565b820191906000526020600020905b8154815290600101906020018083116109ec57829003601f168201915b505050505090806001015490806002018054600181600116156101000203166002900480601f016020809104026020016040519081016040528092919081815260200182805460018160011615610100020316600290048015610aad5780601f10610a8257610100808354040283529160200191610aad565b820191906000526020600020905b815481529060010190602001808311610a9057829003601f168201915b5050505050905083565b600080600360003373ffffffffffffffffffffffffffffffffffffffff1673ffffffffffffffffffffffffffffffffffffffff1681526020019081526020016000209050806001015491505090565b60036020528060005260406000206000915090508060000154908060010154905082565b60028181548110610b3757fe5b9060005260206000209060030201600091509050806000018054600181600116156101000203166002900480601f016020809104026020016040519081016040528092919081815260200182805460018160011615610100020316600290048015610be35780601f10610bb857610100808354040283529160200191610be3565b820191906000526020600020905b815481529060010190602001808311610bc657829003601f168201915b505050505090806001015490806002018054600181600116156101000203166002900480601f016020809104026020016040519081016040528092919081815260200182805460018160011615610100020316600290048015610c875780601f10610c5c57610100808354040283529160200191610c87565b820191906000526020600020905b815481529060010190602001808311610c6a57829003601f168201915b5050505050905083565b6000600360003373ffffffffffffffffffffffffffffffffffffffff1673ffffffffffffffffffffffffffffffffffffffff1681526020019081526020016000209050600081600001546001540290503373ffffffffffffffffffffffffffffffffffffffff166108fc829081150290604051600060405180830381858888f19350505050158015610d27573d6000803e3d6000fd5b50600082600001819055505050565b828054600181600116156101000203166002900490600052602060002090601f016020900481019282601f10610d7757805160ff1916838001178555610da5565b82800160010185558215610da5579182015b82811115610da4578251825591602001919060010190610d89565b5b509050610db29190610e3d565b5090565b828054600181600116156101000203166002900490600052602060002090601f016020900481019282601f10610def5780548555610e2c565b82800160010185558215610e2c57600052602060002091601f016020900482015b82811115610e2b578254825591600101919060010190610e10565b5b509050610e399190610e3d565b5090565b610e5f91905b80821115610e5b576000816000905550600101610e43565b5090565b9056fea265627a7a723158207dae683b7f67c7c0a828aef2294d6b6a4263c89707d2e4789905af6482c5904964736f6c63430005100032",
  "source": "pragma solidity >=0.4.21 <0.6.0;\n\n\ncontract Curriculum {\n   /* string ipfsHash;\n    \n    //Cambia el valor de la variable ipfshash\n    function set(string memory x) public {\n        ipfsHash = x;\n    }\n\n    //Retorna el valor de la variable ipfshash\n    function get() public view returns (string memory) {\n        return ipfsHash;\n    }\n*/\n \n //Recibe un índice para leer de un array el tipo de archivo que se está cargando\n //Ve que accedemos al nombre que está guardado en ese índice del array y lo retorna\n function getFilesName(uint i) external view returns (string memory)  {\n       string memory nameArray = files[i].name;\n\n       return(nameArray);\n       \n    }\n\n    //Lo mismo pero retorna el costo de subir el archivo\n     function getFilesPrice(uint i) external view returns (uint256)  {\n       uint256 priceArray = files[i].price;\n\n       return(priceArray);\n       \n    }\n\n\n     //Retorna la cantidad de archivos que ha cargado el aspirante\n      function getAspiranteTotalFiles() public view returns (uint) { \n        Aspirante storage aspirante = aspirantes[msg.sender];\n\n        return aspirante.totalFiles;\n    }\n\n    address public owner; //El dueño del smart contract\n\n    //Nuevo tipo de dato que representa al Aspirante que quiere cargar su expediente\n     struct Aspirante {\n        uint loyaltyPoints;\n        uint totalFiles;\n    }\n\n    //Nuevo tipo de dato que representa a cada Archivo que \n    //va a cargar el Aspirante en su expediente\n    struct Files {\n        string name;\n        uint256 price;\n        string hashFile;\n\n    }\n\n    uint etherPerPoint = 0.5 ether; //El valor del LoyaltyPoint\n    \n    //Arreglo para guardar los Archivos que el Aspirante\n    //va a poder cargar en su expediente\n    Files[] public files; \n\n\n    //Complejo que asigna un address a un Aspirante\n    //Tenemos en este tipo de datos a todos los aspirantes\n     mapping(address => Aspirante) public aspirantes;\n\n     //Complejo que asigna un address del aspirante a un Archivo que ha cargado\n     //Guarda la lista de Archivos que ha cargado cada Aspirante\n     mapping(address => Files[]) public aspiranteFiles;\n\n     //Complejo que asigna un address de aspirante a la cantidad de archivos que ha cargado\n     //Relaciona la dirección de un Aspirante con el nro de archivos que tiene en su expediente\n     mapping (address => uint) public aspiranteTotalFiles;\n\n    event FilePurchased(address indexed aspirante, uint price);\n\n    constructor() public {\n        owner = msg.sender; //La persona que despliega el contrato\n\n        //Inicializamos los archivos que puede almacenar en el expediente docente\n        files.push(Files('Foto Carnet', 1 ether, 'x'));\n        files.push(Files('Cedula', 3 ether, 'x'));\n        files.push(Files('Titulos', 2 ether, 'x'));\n        files.push(Files('Certificados', 1 ether, 'x'));\n        files.push(Files('Calificaciones', 1 ether, 'x'));\n    }\n\n    //Cargar el archivo en el expediente\n    function UpFiles(uint filesIndex, string memory ipfsHash) public{\n        Files storage file = files[filesIndex];//Guardamos el archivo que está cargando en su expediente\n\n        file.hashFile = ipfsHash; //Le asignamos el hash de la IPFS\n\n        Aspirante storage aspirante = aspirantes[msg.sender];//Obtenemos el aspirante que estamos modificando\n\n        aspirante.loyaltyPoints += 1; //Aumentamos sus puntos de Lealtad\n        aspirante.totalFiles += 1; //Aumentamos la variable de control de cantidad de archivos en el expediente\n        aspiranteFiles[msg.sender].push(file); //Guardamos el Archivo actualizado en mapping asociado al address del Aspirante\n        aspiranteTotalFiles[msg.sender]++; //Almacenamos en el arreglo de Address con Nro de Archivos por Aspirante\n\n      emit FilePurchased(msg.sender, file.price);\n    }\n    \n    \n    //¿Cuátos archivos están desplegados para que pueda subir el aspirante?\n      function totalFiles() public view returns (uint) { \n        return files.length;\n    }\n    \n    \n    //Cambiar LoyaltyPointsenDivisa\n    function redeemLoyaltyPoints() public { \n        Aspirante storage aspirante = aspirantes[msg.sender];\n        uint etherToRefund = etherPerPoint * aspirante.loyaltyPoints;\n        msg.sender.transfer(etherToRefund);\n        aspirante.loyaltyPoints = 0;\n\n    }\n\n\n}",
  "sourcePath": "/home/nahomi/Expediente/expediente/contracts/Curriculum.sol",
  "compiler": {
    "name": "solc",
    "version": "0.5.16+commit.9c3226ce.Emscripten.clang"
  },
  "schemaVersion": "3.1.0",
  "updatedAt": "2021-02-14T02:10:42.897Z",
  "networkType": "ethereum",
  "devdoc": {
    "methods": {}
  },
  "userdoc": {
    "methods": {}
  }
}